:020000040800F2
:1000000000280020ED180008751800087D18000869
:10001000851800088D1800089518000800000000D9
:100020000000000000000000000000009D18000813
:10003000A918000800000000B5180008C118000841
:100040003519000835190008351900083519000858
:100050003519000835190008351900083519000848
:100060003519000835190008351900083519000838
:100070003519000835190008351900083519000828
:100080003519000835190008351900083519000818
:100090003519000835190008351900083519000808
:1000A00035190008351900083519000835190008F8
:1000B000CD180008351900080000000035190008A7
:1000C0003519000800000000000000003519000884
:1000D0000000000035190008351900080000000074
:1000E000351900083519000835190008000000000E
:1000F0000000000000000000000000000000000000
:0C01000000000000000000005FF808F1A3
:10010C0010B5054C237833B9044B13B10448AFF345
:10011C0000800123237010BD7C0000200000000033
:10012C001430000808B5034B1BB103490348AFF367
:10013C00008008BD00000000800000201430000882
:10014C0080B582B000AF78607B68092B00F28081AB
:10015C0001A252F823F000BF8D010008D501000860
:10016C001D02000865020008AD020008F502000837
:10017C003D03000885030008CD03000815040008A2
:10018C0000220121B44801F0D4FE00220221B24821
:10019C0001F0CFFE00220421AF4801F0CAFE00227C
:1001AC000821AD4801F0C5FE00221021AA4801F03B
:1001BC00C0FE00222021A84801F0BBFE01224021F4
:1001CC00A54801F0B6FE43E101220121A24801F04D
:1001DC00B0FE00220221A04801F0ABFE0022042157
:1001EC009D4801F0A6FE012208219B4801F0A1FECA
:1001FC0001221021984801F09CFE012220219648F2
:10020C0001F097FE01224021934801F092FE1FE17C
:10021C0000220121904801F08CFE002202218E4820
:10022C0001F087FE012204218B4801F082FE00229E
:10023C000821894801F07DFE00221021864801F03A
:10024C0078FE01222021844801F073FE0022402117
:10025C00814801F06EFEFBE0002201217E4801F096
:10026C0068FE002202217C4801F063FE002204217A
:10027C00794801F05EFE00220821774801F059FE12
:10028C0001221021744801F054FE012220217248F1
:10029C0001F04FFE002240216F4801F04AFED7E0EA
:1002AC00012201216C4801F044FE002202216A481F
:1002BC0001F03FFE00220421674801F03AFE0122C2
:1002CC000821654801F035FE01221021624801F039
:1002DC0030FE00222021604801F02BFE002240213C
:1002EC005D4801F026FEB3E0002201215A4801F0DE
:1002FC0020FE01220221584801F01BFE002204219D
:10030C00554801F016FE00220821534801F011FE59
:10031C0001221021504801F00CFE002220214E48F1
:10032C0001F007FE002240214B4801F002FE8FE055
:10033C0000220121484801F0FCFD0122022146481F
:10034C0001F0F7FD00220421434801F0F2FD0022E8
:10035C000821414801F0EDFD002210213E4801F03A
:10036C00E8FD002220213C4801F0E3FD0022402161
:10037C00394801F0DEFD6BE000220121364801F026
:10038C00D8FD00220221344801F0D3FD00220421C3
:10039C00314801F0CEFD012208212F4801F0C9FDA2
:1003AC00012210212C4801F0C4FD012220212A48F1
:1003BC0001F0BFFD01224021274801F0BAFD47E0C2
:1003CC0000220121244801F0B4FD00220221224820
:1003DC0001F0AFFD002204211F4801F0AAFD00220C
:1003EC0008211D4801F0A5FD002210211A4801F03A
:1003FC00A0FD00222021184801F09BFD0022402185
:10040C00154801F096FD23E000220121124801F06D
:10041C0090FD00220221104801F08BFD00220421E6
:10042C000D4801F086FD002208210B4801F081FDEA
:10043C0001221021084801F07CFD002220210648F1
:10044C0001F077FD00224021034801F072FD00BF4E
:10045C0000BF0837BD4680BD000C014080B582B09E
:10046C0000AF78607B68032B7ED801A252F823F092
:10047C008D040008C7040008010500083B050008AE
:10048C003B4B1B681846FFF75BFE00228021394866
:10049C0001F04FFD01224FF48071364801F049FD07
:1004AC0001224FF40071334801F043FD01224FF457
:1004BC008061304801F03DFD56E02D4B5B681846DD
:1004CC00FFF73EFE012280212A4801F032FD002276
:1004DC004FF48071274801F02CFD01224FF400717C
:1004EC00244801F026FD01224FF48061214801F0DF
:1004FC0020FD39E01E4B9B681846FFF721FE0122B8
:10050C0080211C4801F015FD01224FF4807119481F
:10051C0001F00FFD00224FF40071164801F009FDA7
:10052C0001224FF48061134801F003FD1CE0104BD5
:10053C00DB681846FFF704FE012280210D4801F00C
:10054C00F8FC01224FF480710A4801F0F2FC012200
:10055C004FF40071074801F0ECFC00224FF480616D
:10056C00044801F0E6FC00BF00BF0837BD4680BD63
:10057C0000000020000C014080B500AF084B1B6848
:10058C005A1C07490A601846FFF768FF044B1B68A2
:10059C000422934202D1024B00221A6000BF80BD9C
:1005AC009800002080B483B000AF7860094A7B6863
:1005BC0052F82330012B06D1064A7B68002142F801
:1005CC002310012300E0002318460C37BD4680BCE5
:1005DC00704700BF9C00002080B582B000AF0023A4
:1005EC007B607BE0424A7B6852F8232041497B6860
:1005FC0041F82320404A7B6852F823203C497B6811
:10060C0041F823204FF400513C4801F07BFC034699
:10061C001A46394B1A604FF48041384801F072FC8D
:10062C0003461A46344B5A604FF40041334801F0EC
:10063C0069FC03461A46304B9A602D4A7B6852F887
:10064C0023202D497B6851F823309A4243D1284A04
:10065C007B6852F8232027497B6851F823309A4253
:10066C0039D1244A7B6852F8232025497B6851F8FC
:10067C0023309A4217D01F4A7B6852F82320204916
:10068C007B6841F823201E4A7B6852F82330002BEC
:10069C0021D11C4B4FF4FA721A601B4A7B68012162
:1006AC0042F8231017E0174B1B68013B154A1360E7
:1006BC00144B1B68002B0ED1124B4FF4FA721A60BC
:1006CC000F4A7B6852F82330002B04D10E4A7B680A
:1006DC00012142F823107B6801337B6005227B6883
:1006EC009342FFF67FAF00BF00BF0837BD4680BD09
:1006FC0024000020380000201000002000080140D9
:10070C004C000020600000209C00002080B400AF52
:10071C001A4B1B681A4A82FB03129210DB17D31A6E
:10072C00184A1360154B1968154B83FB01239A105B
:10073C00CB17D21A13469B0013445B00CA1A114BF9
:10074C005A60114B1B680E4A82FB03129210DB1786
:10075C00D31A0C4A93600C4B1968094B83FB012389
:10076C009A10CB17D21A13469B0013445B00CA1A7B
:10077C00044BDA6000BFBD4680BC7047B800002057
:10078C006766666600000020BC00002080B500AFE4
:10079C008021874801F0E5FBFFF7B8FF854B1B680C
:1007AC000D2B7FD801A252F823F000BFF1070008EF
:1007BC00B1080008B1080008B1080008B108000829
:1007CC00B1080008B1080008B1080008B108000819
:1007DC00B1080008B10800080508000879080008ED
:1007EC009508000800F028FB724B0B221A60724B24
:1007FC001B68724A13605CE000F04AFB6F4B1B688D
:10080C00002B06D16B4B0D221A606D4B1B686B4A8B
:10081C0013600020FFF7C6FE0346012B0BD1654B7E
:10082C0015221A60674B1F221A60644B0A221A6049
:10083C00654B01221A600120FFF7B4FE0346012B21
:10084C0032D1624B01221A605A4B1F221A605D4B47
:10085C001F221A60594B02221A60574B1B685A4AC6
:10086C00136000F0E9FA00F0FDFA1DE000F026FB41
:10087C00524B1B68002B19D14E4B0B221A604E4B5E
:10088C001B684E4A136011E000F02EFB4B4B1B68AB
:10089C00002B0DD1474B0C221A604D4B1B68474A5D
:1008AC00136005E000BF04E000BF02E000BF00E001
:1008BC0000BF444B1B680D2B52D801A252F823F0F9
:1008CC00050900086D0900086D0900086D0900088C
:1008DC006D0900086D0900086D0900086D09000814
:1008EC006D0900086D0900086D0900081909000858
:1008FC00350900085109000800F0B4FA314B0D22FB
:10090C001A602F4B1B68304A136030E000F002FB7A
:10091C002D4B1B68002B25D12A4B0D221A60284B1E
:10092C001B68294A13601DE000F00AFB264B1B686C
:10093C00002B19D1234B0B221A601F4B1B68224A28
:10094C00136011E000F012FB1F4B1B68002B0DD144
:10095C001C4B0C221A601E4B1B681B4A136005E0D3
:10096C0000BF04E000BF02E000BF00E000BF114B7D
:10097C001B681E3B1D2B04D9104B1B68013B0F4AF7
:10098C001360104B1B681E3B1D2B04D90E4B1B68B0
:10099C00013B0D4A1360074B1B681E3B1D2B04D8F3
:1009AC000A4B1B68013B094A136000BF80BD00BFA6
:1009BC0000080140B000002064000020B8000020B6
:1009CC006C000020B4000020BC000020C0000020FF
:1009DC006800002080B500AF5A4B1B68153B032BF9
:1009EC0000F2A48001A252F823F000BF090A00080B
:1009FC00550A0008A10A0008ED0A000800F048FAA0
:100A0C0000F0B4FA504B1B68002B0DD14F4B1B68F8
:100A1C004D4A13604E4B1B684E4A1360494B0B22D8
:100A2C001A604D4B0D221A600020FFF7BBFD0346E8
:100A3C00012B7DD1434B16221A60434B0A221A60BC
:100A4C00444B01221A6073E000F022FA00F078FAAD
:100A5C003D4B1B68002B0DD13C4B1B683A4A136075
:100A6C003E4B1B683B4A1360364B0B221A603A4BC9
:100A7C000C221A600020FFF795FD0346012B59D17B
:100A8C00304B17221A60304B0A221A60314B01226C
:100A9C001A604FE000F028FA00F03CFA2A4B1B6871
:100AAC00002B0DD12A4B1B68274A1360274B1B6860
:100ABC00284A1360234B0D221A60274B0B221A6015
:100ACC000020FFF76FFD0346012B35D11D4B18227B
:100ADC001A601D4B0A221A601E4B01221A602BE071
:100AEC0000F0ECF900F016FA174B1B68002B0DD137
:100AFC001A4B1B68144A1360144B1B68154A13607D
:100B0C00104B0C221A60144B0B221A600020FFF7BA
:100B1C0049FD0346012B11D10A4B15221A600A4BD1
:100B2C000A221A600B4B01221A6007E000BF06E094
:100B3C0000BF04E000BF02E000BF00E000BF00BF48
:100B4C0080BD00BFB0000020B80000206400002071
:100B5C006C000020BC000020B400002068000020C5
:100B6C0080B500AF734B1B68212B00F08980212BC3
:100B7C0000F3DE801F2B02D0202B41D0D8E06E4B2F
:100B8C001B68002B0AD16C4B01221A6002216B48A6
:100B9C0001F0E7F91021694801F0E3F90120FFF7B2
:100BAC0001FD0346012B0DD1624B20221A60644BD0
:100BBC0003221A60634B1B68634A136000F03CF914
:100BCC0000F050F90020FFF7EDFC0346012B0BD190
:100BDC005D4B1B6801335C4A13605B4B1B68632BDA
:100BEC0002DD594B01221A600220FFF7DBFC0346A1
:100BFC00012B40F09880544B1B68544A136092E0D0
:100C0C004D4B1B68002B0AD14B4B01221A6004215F
:100C1C004A4801F0A6F92021484801F0A2F9012028
:100C2C00FFF7C0FC0346012B0DD1424B21221A6069
:100C3C00434B04221A60464B1B68434A136000F076
:100C4C00FBF800F00FF90020FFF7ACFC0346012B7A
:100C5C000BD13D4B1B6801333B4A13603A4B1B686D
:100C6C00632B02DD384B01221A600220FFF79AFC3D
:100C7C000346012B59D1344B1B68364A136054E0A0
:100C8C002D4B1B68002B0AD12B4B01221A6008211B
:100C9C002A4801F066F94021284801F062F9012048
:100CAC00FFF780FC0346012B20D12B4B1A68294BF4
:100CBC001B681A44254B1B689A420BD1234B1B68AB
:100CCC00264A1360234B1B681E4A1360224B1B6879
:100CDC001F4A1360174B00221A60214B00221A6026
:100CEC00174B00221A60184B00221A600020FFF7E5
:100CFC0059FC0346012B0BD1134B1B680133124AD1
:100D0C001360114B1B68632B02DD0F4B01221A6021
:100D1C000220FFF747FC0346012B08D10A4B1B6846
:100D2C000D4A136003E000BF02E000BF00E000BF0B
:100D3C0000BF80BDB0000020C000002000080140B2
:100D4C00B800002068000020BC000020C400002077
:100D5C006C000020C8000020CC00002064000020A3
:100D6C00B400002080B586B000AF07F10803002264
:100D7C001A605A609A60DA602C4B9B692B4A43F0DC
:100D8C0008039361294B9B6903F008037B607B6824
:100D9C00264B9B69254A43F004039361234B9B69C3
:100DAC0003F004033B603B6800220121204801F062
:100DBC00C0F80123BB600123FB6000233B610223CD
:100DCC007B6107F108031946194800F01FFF4FF427
:100DDC006043BB600023FB6001233B6107F1080308
:100DEC001946144800F012FFFE23BB600123FB6080
:100DFC0000233B6102237B6107F1080319460D4870
:100E0C0000F004FF43F6FE73BB600123FB6000237C
:100E1C003B6102237B6107F108031946044800F08B
:100E2C00F5FE00BF1837BD4680BD00BF0010024064
:100E3C00000C01400008014080B500AF00220221E7
:100E4C00074801F076F800220421054801F071F8FA
:100E5C0000220821024801F06CF800BF80BD00BFE1
:100E6C000008014080B500AF00221021074801F0B6
:100E7C0060F800222021054801F05BF80022402197
:100E8C00024801F056F800BF80BD00BF00080140C9
:100E9C0080B500AF01220221074801F04AF8002278
:100EAC000421054801F045F800220821024801F010
:100EBC0040F800BF80BD00BF0008014080B500AF06
:100ECC0000220221074801F034F8012204210548D0
:100EDC0001F02FF800220821024801F02AF800BF87
:100EEC0080BD00BF0008014080B500AF0022022188
:100EFC00074801F01EF800220421054801F019F8FA
:100F0C0001220821024801F014F800BF80BD00BF87
:100F1C000008014080B500AF01221021074801F004
:100F2C0008F800222021054801F003F80022402196
:100F3C00024800F0FEFF00BF80BD00BF000801406A
:100F4C0080B500AF00221021074800F0F2FF01220B
:100F5C002021054800F0EDFF00224021024800F05E
:100F6C00E8FF00BF80BD00BF0008014080B500AFA6
:100F7C0000221021074800F0DCFF00222021054848
:100F8C0000F0D7FF01224021024800F0D2FF00BF41
:100F9C0080BD00BF0008014080B500AF00F0C6FC6A
:100FAC0000F03AF800F0C2F800F074F800F0E2FB40
:100FBC00134801F071FC00F0E7F80A224FF4FA71C3
:100FCC00104800F025F94FF47A724FF47A710E48FC
:100FDC0000F01EF964224FF47A710C4800F018F9F5
:100FEC0064224FF47A710A4800F012F97D224FF412
:100FFC00FA61084800F00CF900F056FBFCE700BF62
:10100C00D0000020E505000899070008E109000858
:10101C006D0B00088505000880B590B000AF07F196
:10102C00180328220021184601F0C2FF3B1D0022A4
:10103C001A605A609A60DA601A610A23BB61012354
:10104C00BB621023FB6201233B6300237B6307F12C
:10105C001803184600F0F2FF0346002B01D000F0F5
:10106C0075F80F237B600023BB600023FB6000231B
:10107C003B6100237B613B1D0021184601F060FAA7
:10108C000346002B01D000F061F800BF4037BD468D
:10109C0080BD000080B586B000AF07F108030022C8
:1010AC001A605A609A60DA603B4600221A605A60F5
:1010BC001D4B4FF080421A601B4B41F63F725A6039
:1010CC00194B00229A60184B0922DA60164B002249
:1010DC001A61154B00229A61134801F08DFB0346EF
:1010EC00002B01D000F032F84FF48053BB6007F1B5
:1010FC00080319460C4801F00BFD0346002B01D0E8
:10110C0000F024F800233B6000237B603B4619462B
:10111C00054801F0E3FE0346002B01D000F016F861
:10112C0000BF1837BD4680BDD000002080B500AF91
:10113C00FFF718FE00BF80BD80B582B000AF7860AD
:10114C0000F03EF800BF0837BD4680BD80B400AF4C
:10115C0072B600BF00BFFDE780B400AF094B1B683F
:10116C000133084A1360074B1B68002B04D1054B55
:10117C001B680133034A1360024B1B681846BD46BB
:10118C0080BC70473804002080B582B000AF0023CB
:10119C00FB7106E0FB79184600F090F9FB790133FE
:1011AC00FB71FB79272BF5D9044B00221A7000F048
:1011BC00E1FA00BF0837BD4680BD00BF40040020E7
:1011CC0080B500AF104B1B6801330F4A13600F4BF7
:1011DC001B68002B13D00D4B1B7B002B0FD10B4B23
:1011EC005B68002B04D0094B5B68013B074A5360DA
:1011FC00064B5B68002B02D1044B01221A7300F0E2
:10120C00D3FA00BF80BD00BF3C04002018010020B1
:10121C0090B589B000AFF860B9607A600023FB77B5
:10122C000023BB6100233B610023FB7733E1FA7F92
:10123C00A14913469B0013449B000B4404331B68C9
:10124C00BA691344BB61BA69BB689A4240F2C18067
:10125C00FA7F994913469B0013449B000B440433BB
:10126C001A68BB69D31ABA6813443B61FA7FB9692F
:10127C00BB68C91A904813469B0013449B00034457
:10128C00043319602723FB754CE0FB7D591EFA7D56
:10129C0089480B469B000B449B0003441968864805
:1012AC0013469B0013449B0003441960FB7D591E9D
:1012BC00FA7D81480B469B000B449B00034408338A
:1012CC0019687D4813469B0013449B000344083364
:1012DC001960FB7D591EFA7D77480B469B000B4429
:1012EC009B00034404331968734813469B00134452
:1012FC009B00034404331960FB7D591EFA7D6E4834
:10130C000B469B000B449B000344103319686A483E
:10131C0013469B0013449B00034410331960FB7D60
:10132C00013BFB75FA7DFB7F9A42AED8FA7F62498E
:10133C0013469B0013449B000B44FA681A60FA7F17
:10134C005D4913469B0013449B000B4404333A69DC
:10135C001A60FA7F584913469B0013449B000B44B8
:10136C0008337A681A60FA7F534913469B0013447A
:10137C009B000B4404331B68002B0AD1FA7F4E49A7
:10138C0013469B0013449B000B440C3301221A7030
:10139C0009E0FA7F484913469B0013449B000B4419
:1013AC000C3300221A70FC7FFFF7D6FE024642492E
:1013BC0023469B0023449B000B4410331A60FA7F96
:1013CC003D4913469B0013449B000B4410331B6890
:1013DC006EE0FA7F384913469B0013449B000B4484
:1013EC001B68002B54D1FA7F334913469B001344DE
:1013FC009B000B44FA681A60FA7FB968BB69C91A7A
:10140C002D4813469B0013449B000344043319607E
:10141C00FA7F294913469B0013449B000B44083365
:10142C007A681A60FA7F244913469B0013449B0088
:10143C000B4404331B68002B0AD1FA7F1E49134658
:10144C009B0013449B000B440C3301221A7009E0DF
:10145C00FA7F194913469B0013449B000B440C3331
:10146C0000221A70FC7FFFF777FE024612492346D2
:10147C009B0023449B000B4410331A60FA7F0E49E7
:10148C0013469B0013449B000B4410331B680FE066
:10149C00FB7F0133FB77FB7F272B7FF6C8AEFA7FF0
:1014AC00054913469B0013449B000B4410331B68E7
:1014BC0018462437BD4690BD1801002080B485B075
:1014CC0000AF786000237B737B68002B00F0E48016
:1014DC000023FB73DCE0FA7B724913469B00134438
:1014EC009B000B4410331B687A689A4240F0CD8005
:1014FC0001237B73FB7B002B2BD0FB7B262B28D86B
:10150C00FB7B5A1C674913469B0013449B000B44FE
:10151C001B68002B1DD0FB7B5A1C624913469B0099
:10152C0013449B000B4404331968FA7B5D48134643
:10153C009B0013449B00034404331B68FA7B013269
:10154C001944584813469B0013449B00034404332E
:10155C001960FB7BBB7360E0BB7B591CBA7B5148A9
:10156C000B469B000B449B00034419684D481346E3
:10157C009B0013449B0003441960BB7B591CBA7B32
:10158C0048480B469B000B449B00034408331968E6
:10159C00444813469B0013449B00034408331960D2
:1015AC00BB7B591CBA7B3F480B469B000B449B00F2
:1015BC000344043319683B4813469B0013449B00B7
:1015CC00034404331960BB7B591CBA7B35480B466A
:1015DC009B000B449B0003440C3318783149134691
:1015EC009B0013449B000B440C3302461A70BB7BCC
:1015FC00591CBA7B2B480B469B000B449B000344A5
:10160C0010331968274813469B0013449B0003446E
:10161C0010331960BB7B0133BB73BB7B262B9BD96F
:10162C00BA7B204913469B0013449B000B440022B9
:10163C001A60BA7B1B4913469B0013449B000B4456
:10164C00083300221A60BA7B164913469B001344D8
:10165C009B000B44043300221A60BA7B11491346D9
:10166C009B0013449B000B440C3300221A70BA7B72
:10167C000C4913469B0013449B000B44103300226F
:10168C001A6000237B737B7B07E0FB7B0133FB73CE
:10169C00FB7B272B7FF61FAF7B7B18461437BD4691
:1016AC0080BC704718010020B0B586B000AF124B5B
:1016BC001B7B002B19D0104B1B6898470E4B00223C
:1016CC001A730D4B3C1D1D460FCD0FC42B682360A8
:1016DC007B691846FFF7F2FEFB68002B05D07B6890
:1016EC00F968FA681846FFF793FD00F007F800BF99
:1016FC001837BD46B0BD00BF1801002080B400AF44
:10170C00184B1A78184B1B789A4216D0154B1B782D
:10171C00DB43DAB2154B1A70124B1A78124B1A7053
:10172C00104B1B78002B04D0114B4EF660221A6024
:10173C0013E00F4B00221A600FE00D4B1B68002BBF
:10174C000BD00B4B1B68013B094A1360084B1B6801
:10175C00002B02D1034B00221A7000BFBD4680BC87
:10176C00704700BF400400204204002041040020C8
:10177C004404002080B500AF094B0A4A1A60084B9C
:10178C0003225A60064B40F6FF729A60044800F040
:10179C0001FC0346002B01D0FFF7D8FC00BF80BD35
:1017AC00480400200030004080B500AF024800F033
:1017BC0035FC00BF80BD00BF4804002080B485B05C
:1017CC0000AF154B9B69144A43F001039361124B14
:1017DC009B6903F00103BB60BB680F4BDB690E4ACE
:1017EC0043F08053D3610C4BDB6903F080537B6077
:1017FC007B680A4B5B68FB60FB6823F0E063FB6073
:10180C00FB6843F08063FB60044AFB68536000BFD5
:10181C001437BD4680BC70470010024000000140E8
:10182C0080B584B000AF78607B681B68B3F1804FE3
:10183C0013D10C4BDB690B4A43F00103D361094B09
:10184C00DB6903F00103FB60FB68002200211C2014
:10185C0000F0A5F91C2000F0BEF900BF1037BD4602
:10186C0080BD00BF0010024080B400AF00BFFDE798
:10187C0080B400AF00BFFDE780B400AF00BFFDE750
:10188C0080B400AF00BFFDE780B400AF00BFFDE740
:10189C0080B400AF00BFBD4680BC704780B400AFC1
:1018AC0000BFBD4680BC704780B400AF00BFBD46D2
:1018BC0080BC704780B500AF00F07EF800BF80BDE3
:1018CC0080B500AF024801F033F800BF80BD00BF07
:1018DC00D000002080B400AF00BFBD4680BC704774
:1018EC00FFF7F8FF0B480C490C4A002302E0D458D0
:1018FC00C4500433C4188C42F9D3094A094C002350
:10190C0001E013600432A242FBD301F059FBFFF754
:10191C0043FB7047000000207C000020583000087A
:10192C007C00002058040020FEE7000080B500AFCA
:10193C00084B1B68074A43F010031360032000F0A8
:10194C0023F90F2000F008F8FFF738FF00231846A2
:10195C0080BD00BF0020024080B582B000AF78602F
:10196C00124B1A68124B1B7819464FF47A73B3FB5F
:10197C00F1F3B2FBF3F3184600F03BF90346002BEE
:10198C0001D001230EE07B680F2B0AD80022796866
:10199C004FF0FF3000F003F9064A7B681360002318
:1019AC0000E0012318460837BD4680BD70000020BA
:1019BC00780000207400002080B400AF054B1B7829
:1019CC001A46054B1B681344034A136000BFBD46FF
:1019DC0080BC7047780000205404002080B400AF15
:1019EC00024B1B681846BD4680BC7047540400204F
:1019FC0080B485B000AF78607B6803F00703FB60B0
:101A0C000C4BDB68BB60BA684FF6FF031340BB603E
:101A1C00FB681A02BB68134343F0BF6343F4003303
:101A2C00BB60044ABB68D36000BF1437BD4680BCA2
:101A3C00704700BF00ED00E080B400AF044BDB68E2
:101A4C001B0A03F007031846BD4680BC704700BF55
:101A5C0000ED00E080B483B000AF0346FB7197F952
:101A6C000730002B0BDBFB7903F01F02064997F9BB
:101A7C0007305B09012000FA02F241F8232000BF75
:101A8C000C37BD4680BC704700E100E080B483B0E9
:101A9C0000AF03463960FB7197F90730002B0ADB66
:101AAC003B68DAB20C4997F907301201D2B20B44F9
:101ABC0083F800230AE03B68DAB20849FB7903F0AB
:101ACC000F03043B1201D2B20B441A7600BF0C3741
:101ADC00BD4680BC704700BF00E100E000ED00E0B7
:101AEC0080B489B000AFF860B9607A60FB6803F02D
:101AFC000703FB61FB69C3F10703042B28BF042315
:101B0C00BB61FB690433062B02D9FB69033B00E084
:101B1C0000237B614FF0FF32BB6902FA03F3DA4317
:101B2C00BB681A407B699A404FF0FF317B6901FA20
:101B3C0003F3D9437B680B40134318462437BD4647
:101B4C0080BC704780B582B000AF78607B68013B89
:101B5C00B3F1807F01D301230FE00A4A7B68013B7C
:101B6C0053600F214FF0FF30FFF790FF054B002221
:101B7C009A60044B07221A60002318460837BD46AA
:101B8C0080BD00BF10E000E080B582B000AF78608F
:101B9C007868FFF72DFF00BF0837BD4680BD80B5C4
:101BAC0086B000AF0346B9607A60FB7300237B619B
:101BBC00FFF742FF78617A68B9687869FFF790FFA0
:101BCC00024697F90F3011461846FFF75FFF00BF2A
:101BDC001837BD4680BD80B582B000AF0346FB719F
:101BEC0097F907301846FFF735FF00BF0837BD4699
:101BFC0080BD80B582B000AF78607868FFF7A2FF37
:101C0C00034618460837BD4680BD000080B48BB033
:101C1C0000AF7860396000237B6200233B6261E196
:101C2C0001227B6A02FA03F3FB613B681B68FA69C9
:101C3C001340BB61BA69FB699A4240F050813B6822
:101C4C005B68974A93425ED0954A934275D8954A01
:101C5C00934258D0934A93426FD8934A934252D0AE
:101C6C00914A934269D8914A93424CD08F4A9342FD
:101C7C0063D88F4A934246D08D4A93425DD8122B3B
:101C8C002AD8122B59D801A252F823F0131D0008A0
:101C9C00ED1C0008FF1C0008411D0008471D000832
:101CAC00471D0008471D0008471D0008471D000878
:101CBC00471D0008471D0008471D0008471D000868
:101CCC00471D0008471D0008471D0008471D000858
:101CDC00F51C0008091D0008764A934213D02CE02D
:101CEC003B68DB683B6229E03B68DB6804333B62A2
:101CFC0024E03B68DB6808333B621FE03B68DB6831
:101D0C000C333B621AE03B689B68002B02D1042326
:101D1C003B6213E03B689B68012B05D108233B62B7
:101D2C007B68FA691A6109E008233B627B68FA69EF
:101D3C005A6103E000233B6200E000BFBB69FF2B4C
:101D4C0001D87B6801E07B6804337B61BB69FF2BA6
:101D5C0002D87B6A9B0002E07B6A083B9B003B61DC
:101D6C007B691A680F213B6901FA03F3DB431A40C4
:101D7C00396A3B6901FA03F31A437B691A603B68C1
:101D8C005B6803F08053002B00F0A9804A4B9B69E1
:101D9C00494A43F001039361474B9B6903F00103EC
:101DAC00BB60BB68454A7B6A9B08023352F8233000
:101DBC00FB607B6A03F003039B000F2202FA03F320
:101DCC00DB43FA681340FB607B683D4A93420DD0BD
:101DDC007B683C4A934207D07B683B4A934201D1D3
:101DEC00022304E0032302E0012300E000237A6ACB
:101DFC0002F0030292009340FA681343FB602F49F0
:101E0C007B6A9B080233FA6841F823203B685B68C5
:101E1C0003F48013002B06D02C4B9A682B49BB691A
:101E2C0013438B6006E0294B9A68BB69DB43274957
:101E3C0013408B603B685B6803F40013002B06D0E7
:101E4C00224BDA682149BB691343CB6006E01F4B78
:101E5C00DA68BB69DB431D491340CB603B685B68A8
:101E6C0003F40033002B06D0184B5A681749BB6992
:101E7C0013434B6006E0154B5A68BB69DB431349AF
:101E8C0013404B603B685B6803F48033002B1FD01E
:101E9C000E4B1A680D49BB6913430B601FE000BF62
:101EAC000000321000003110000022100000211040
:101EBC000000121000001110001002400000014040
:101ECC0000080140000C01400010014000040140DA
:101EDC000B4B1A68BB69DB43094913400B607B6AE7
:101EEC0001337B623B681A687B6A22FA03F3002B8E
:101EFC007FF496AE00BF00BF2C37BD4680BC704748
:101F0C000004014080B485B000AF78600B467B8044
:101F1C007B689A687B881340002B02D00123FB73EB
:101F2C0001E00023FB73FB7B18461437BD4680BCD5
:101F3C00704780B483B000AF78600B467B8013464B
:101F4C007B707B78002B03D07A887B681A6103E066
:101F5C007B881A047B681A6100BF0C37BD4680BCB5
:101F6C00704780B485B000AF78600B467B807B688F
:101F7C00DB68FB607A88FB6813401A04FB68D94362
:101F8C007B880B401A437B681A6100BF1437BD462F
:101F9C0080BC704780B584B000AF78607B68002B44
:101FAC0001D1012336E07B681B684CF6CC421A60E9
:101FBC007B681B6845F255521A607B681B687A680F
:101FCC0052685A607B681B687A6892689A60FFF75F
:101FDC0005FDF86011E0FFF701FD0246FB68D31A1E
:101FEC0041F23C32934208D97B681B68DB6803F0F2
:101FFC000303002B01D003230CE07B681B68DB6818
:10200C0003F00303002BE6D17B681B684AF6AA2277
:10201C001A60002318461037BD4680BD80B483B0CB
:10202C0000AF78607B681B684AF6AA221A6000230E
:10203C0018460C37BD4680BC7047000080B586B092
:10204C0000AF78607B68002B01D1012372E27B68C2
:10205C001B6803F00103002B00F08780924B5B6838
:10206C0003F00C03042B0CD08F4B5B6803F00C03B8
:10207C00082B12D18C4B5B6803F48033B3F5803F93
:10208C000BD1894B1B6803F40033002B6CD07B689D
:10209C005B68002B68D101234CE27B685B68B3F56D
:1020AC00803F06D1804B1B687F4A43F4803313601A
:1020BC002EE07B685B68002B0CD17B4B1B687A4A4B
:1020CC0023F480331360784B1B68774A23F4802306
:1020DC0013601DE07B685B68B3F5A02F0CD1724BCD
:1020EC001B68714A43F4802313606F4B1B686E4A64
:1020FC0043F4803313600BE06B4B1B686A4A23F488
:10210C0080331360684B1B68674A23F48023136089
:10211C007B685B68002B13D0FFF760FC386108E02C
:10212C00FFF75CFC02463B69D31A642B01D90323ED
:10213C0000E25D4B1B6803F40033002BF0D014E07D
:10214C00FFF74CFC386108E0FFF748FC02463B699E
:10215C00D31A642B01D90323ECE1534B1B6803F412
:10216C000033002BF0D100E000BF7B681B6803F04C
:10217C000203002B63D04C4B5B6803F00C03002B69
:10218C000BD0494B5B6803F00C03082B1CD1464B5E
:10219C005B6803F48033002B16D1434B1B6803F0B0
:1021AC000203002B05D07B681B69012B01D0012396
:1021BC00C0E13D4B1B6823F0F8027B685B69DB00D8
:1021CC00394913430B603AE07B681B69002B20D024
:1021DC00364B01221A60FFF701FC386108E0FFF76B
:1021EC00FDFB02463B69D31A022B01D90323A1E163
:1021FC002D4B1B6803F00203002BF0D02A4B1B68FD
:10220C0023F0F8027B685B69DB00274913430B6002
:10221C0015E0264B00221A60FFF7E0FB386108E05E
:10222C00FFF7DCFB02463B69D31A022B01D90323CF
:10223C0080E11D4B1B6803F00203002BF0D17B687F
:10224C001B6803F00803002B3AD07B689B69002BBA
:10225C0019D0174B01221A60FFF7C0FB386108E058
:10226C00FFF7BCFB02463B69D31A022B01D90323AF
:10227C0060E10D4B5B6A03F00203002BF0D00120F0
:10228C0000F09CFA1CE00A4B00221A60FFF7A6FB38
:10229C0038610FE0FFF7A2FB02463B69D31A022B11
:1022AC0008D9032346E100BF00100240000042425F
:1022BC0080044242924B5B6A03F00203002BE9D18B
:1022CC007B681B6803F00403002B00F0A68000233E
:1022DC00FB758B4BDB6903F08053002B0DD1884BC6
:1022EC00DB69874A43F08053D361854BDB6903F08C
:1022FC008053BB60BB680123FB75824B1B6803F4E6
:10230C008073002B18D17F4B1B687E4A43F480737B
:10231C001360FFF763FB386108E0FFF75FFB0246D1
:10232C003B69D31A642B01D9032303E1754B1B685A
:10233C0003F48073002BF0D07B68DB68012B06D193
:10234C006F4B1B6A6E4A43F0010313622DE07B68EE
:10235C00DB68002B0CD16A4B1B6A694A23F0010322
:10236C001362674B1B6A664A23F0040313621CE07A
:10237C007B68DB68052B0CD1614B1B6A604A43F010
:10238C00040313625E4B1B6A5D4A43F00103136244
:10239C000BE05B4B1B6A5A4A23F001031362584B48
:1023AC001B6A574A23F0040313627B68DB68002B1B
:1023BC0015D0FFF713FB38610AE0FFF70FFB02465D
:1023CC003B69D31A41F28832934201D90323B1E01D
:1023DC004B4B1B6A03F00203002BEED014E0FFF70B
:1023EC00FDFA38610AE0FFF7F9FA02463B69D31AA5
:1023FC0041F28832934201D903239BE0404B1B6A84
:10240C0003F00203002BEED1FB7D012B05D13C4BDD
:10241C00DB693B4A23F08053D3617B68DB69002B7B
:10242C0000F08780364B5B6803F00C03082B61D0FF
:10243C007B68DB69022B46D1334B00221A60FFF715
:10244C00CDFA386108E0FFF7C9FA02463B69D31AA6
:10245C00022B01D903236DE0294B1B6803F0007399
:10246C00002BF0D17B681B6AB3F5803F08D1244B5D
:10247C005B6823F400327B689B68214913434B60F3
:10248C001F4B5B6823F474127B68196A7B685B6A68
:10249C000B431B4913434B601B4B01221A60FFF784
:1024AC009DFA386108E0FFF799FA02463B69D31AA6
:1024BC00022B01D903233DE0114B1B6803F0007381
:1024CC00002BF0D035E0104B00221A60FFF786FA93
:1024DC00386108E0FFF782FA02463B69D31A022BF7
:1024EC0001D9032326E0064B1B6803F00073002B75
:1024FC00F0D11EE07B68DB69012B07D1012319E0C9
:10250C000010024000700040600042420B4B5B68C0
:10251C00FB60FB6803F480327B681B6A9A4206D12D
:10252C00FB6803F470127B685B6A9A4201D001234A
:10253C0000E0002318461837BD4680BD001002404D
:10254C0080B584B000AF786039607B68002B01D116
:10255C000123D0E06A4B1B6803F007033A689A42E8
:10256C0010D9674B1B6823F0070265493B6813437E
:10257C000B60634B1B6803F007033A689A4201D067
:10258C000123B8E07B681B6803F00203002B20D00A
:10259C007B681B6803F00403002B05D0594B5B6868
:1025AC00584A43F4E06353607B681B6803F00803EC
:1025BC00002B05D0534B5B68524A43F46053536075
:1025CC00504B5B6823F0F0027B689B684D491343CA
:1025DC004B607B681B6803F00103002B40D07B68C9
:1025EC005B68012B07D1474B1B6803F40033002BAE
:1025FC0015D101237FE07B685B68022B07D1414B2F
:10260C001B6803F00073002B09D1012373E03D4BD1
:10261C001B6803F00203002B01D101236BE0394B43
:10262C005B6823F003027B685B68364913434B609D
:10263C00FFF7D4F9F8600AE0FFF7D0F90246FB681F
:10264C00D31A41F28832934201D9032353E02D4B24
:10265C005B6803F00C027B685B689B009A42EBD1D1
:10266C00274B1B6803F007033A689A4210D2244B9D
:10267C001B6823F0070222493B6813430B60204B75
:10268C001B6803F007033A689A4201D0012332E039
:10269C007B681B6803F00403002B08D0194B5B68A4
:1026AC0023F4E0627B68DB68164913434B607B685C
:1026BC001B6803F00803002B09D0124B5B6823F452
:1026CC0060527B681B69DB000E4913434B6000F0C2
:1026DC0021F802460B4B5B681B0903F00F030A49F8
:1026EC00CB5C22FA03F3094A1360094B1B681846AA
:1026FC00FFF732F9002318461037BD4680BD00BFE6
:10270C0000200240001002402C3000087000002015
:10271C007400002080B487B000AF0023FB6000235E
:10272C00BB6000237B6100237B6000233B611E4B5D
:10273C005B68FB60FB6803F00C03042B02D0082BD6
:10274C0003D027E0194B3B6127E0FB689B0C03F09F
:10275C000F03174AD35C7B60FB6803F48033002BB8
:10276C0010D0114B5B685B0C03F00103114AD35C76
:10277C00BB607B680D4A03FB02F2BB68B2FBF3F350
:10278C007B6104E07B680C4A02FB03F37B617B6991
:10279C003B6102E0054B3B6100BF3B6918461C37AF
:1027AC00BD4680BC704700BF0010024000127A008A
:1027BC003C3000084C30000800093D0080B485B066
:1027CC0000AF78600A4B1B680A4AA2FB03235B0A22
:1027DC007A6802FB03F3FB6000BFFB685A1EFA60C9
:1027EC00002BF9D100BF00BF1437BD4680BC704729
:1027FC0070000020D34D621080B582B000AF7860BD
:10280C007B68002B01D1012341E07B6893F83D30BC
:10281C00DBB2002B06D17B68002283F83C20786861
:10282C00FEF7FEFF7B68022283F83D207B681A6866
:10283C007B6804331946104600F056FA7B68012277
:10284C0083F846207B68012283F83E207B680122B6
:10285C0083F83F207B68012283F840207B680122AB
:10286C0083F841207B68012283F842207B68012297
:10287C0083F843207B68012283F844207B68012283
:10288C0083F845207B68012283F83D2000231846FD
:10289C000837BD4680BD000080B485B000AF7860BD
:1028AC007B6893F83D30DBB2012B01D0012335E07E
:1028BC007B68022283F83D207B681B68DA687B68A2
:1028CC001B6842F00102DA607B681B68164A93426F
:1028DC0009D07B681B68B3F1804F04D07B681B6800
:1028EC00124A934211D17B681B689B6803F0070363
:1028FC00FB60FB68062B10D07B681B681A687B6832
:10290C001B6842F001021A6007E07B681B681A68BA
:10291C007B681B6842F001021A60002318461437CA
:10292C00BD4680BC704700BF002C01400004004035
:10293C0080B584B000AF78607B681B68DB68FB6097
:10294C007B681B681B69BB60BB6803F00203002B30
:10295C0020D0FB6803F00203002B1BD07B681B68A4
:10296C006FF002021A617B6801221A777B681B6880
:10297C009B6903F00303002B03D0786800F098F9EF
:10298C0005E0786800F08BF9786800F09AF97B68BC
:10299C0000221A77BB6803F00403002B20D0FB68DD
:1029AC0003F00403002B1BD07B681B686FF0040240
:1029BC001A617B6802221A777B681B689B6903F497
:1029CC004073002B03D0786800F072F905E078684A
:1029DC0000F065F9786800F074F97B6800221A77CA
:1029EC00BB6803F00803002B20D0FB6803F008033E
:1029FC00002B1BD07B681B686FF008021A617B6888
:102A0C0004221A777B681B68DB6903F00303002B35
:102A1C0003D0786800F04CF905E0786800F03FF9D5
:102A2C00786800F04EF97B6800221A77BB6803F0D7
:102A3C001003002B20D0FB6803F01003002B1BD0DD
:102A4C007B681B686FF010021A617B6808221A778A
:102A5C007B681B68DB6903F44073002B03D0786838
:102A6C0000F026F905E0786800F019F9786800F0B4
:102A7C0028F97B6800221A77BB6803F00103002B4E
:102A8C000CD0FB6803F00103002B07D07B681B689C
:102A9C006FF001021A617868FEF74EFBBB6803F019
:102AAC008003002B0CD0FB6803F08003002B07D0B5
:102ABC007B681B686FF080021A61786800F06FFA0F
:102ACC00BB6803F04003002B0CD0FB6803F0400301
:102ADC00002B07D07B681B686FF040021A61786886
:102AEC0000F0F8F8BB6803F02003002B0CD0FB6857
:102AFC0003F02003002B07D07B681B686FF02002CB
:102B0C001A61786800F042FA00BF1037BD4680BDEC
:102B1C0080B584B000AF786039600023FB737B68AC
:102B2C0093F83C30012B01D10223B4E07B680122E5
:102B3C0083F83C207B68022283F83D207B681B686D
:102B4C009B68BB60BB6823F07703BB60BB6823F456
:102B5C007F43BB607B681B68BA689A603B681B68E4
:102B6C00B3F5005F3ED0B3F5005F00F28780B3F59C
:102B7C00805F00F08680B3F5805F7FD8702B1AD011
:102B8C00702B7BD8602B50D0602B77D8502B3CD03F
:102B9C00502B73D8402B58D0402B6FD8302B64D08F
:102BAC00302B6BD8202B60D0202B67D8002B5CD01F
:102BBC00102B5AD062E07B6818683B6899683B68B8
:102BCC005A683B68DB6800F06AF97B681B689B6895
:102BDC00BB60BB6843F07703BB607B681B68BA685B
:102BEC009A604FE07B6818683B6899683B685A6844
:102BFC003B68DB6800F053F97B681B689A687B685C
:102C0C001B6842F480429A603CE07B6818683B6821
:102C1C0059683B68DB681A4600F0CAF87B681B6889
:102C2C005021184600F021F92CE07B6818683B68AD
:102C3C0059683B68DB681A4600F0E8F87B681B684B
:102C4C006021184600F011F91CE07B6818683B689D
:102C5C0059683B68DB681A4600F0AAF87B681B6869
:102C6C004021184600F001F90CE07B681A683B68BB
:102C7C001B681946104600F0F8F803E00123FB73BB
:102C8C0000E000BF7B68012283F83D207B680022B6
:102C9C0083F83C20FB7B18461037BD4680BD80B4C2
:102CAC0083B000AF786000BF0C37BD4680BC704766
:102CBC0080B483B000AF786000BF0C37BD4680BCD9
:102CCC00704780B483B000AF786000BF0C37BD464E
:102CDC0080BC704780B483B000AF786000BF0C3705
:102CEC00BD4680BC7047000080B485B000AF7860F2
:102CFC0039607B681B68FB607B682B4A934207D06A
:102D0C007B68B3F1804F03D07B68284A934208D18B
:102D1C00FB6823F07003FB603B685B68FA68134345
:102D2C00FB607B68204A934207D07B68B3F1804FED
:102D3C0003D07B681D4A934208D1FB6823F440738F
:102D4C00FB603B68DB68FA681343FB60FB6823F0AD
:102D5C0080023B685B691343FB607B68FA681A600E
:102D6C003B689A687B68DA623B681A687B689A628F
:102D7C007B680D4A934203D13B681A697B681A63DE
:102D8C007B6801225A617B681B6903F00103002BED
:102D9C0005D07B681B6923F001027B681A6100BFB8
:102DAC001437BD4680BC7047002C01400004004025
:102DBC0080B487B000AFF860B9607A60FB681B6ABA
:102DCC007B61FB681B6A23F00102FB681A62FB68DB
:102DDC009B693B613B6923F0F0033B617B681B0102
:102DEC003A6913433B617B6923F00A037B617A697F
:102DFC00BB6813437B61FB683A699A61FB687A692B
:102E0C001A6200BF1C37BD4680BC704780B487B0C7
:102E1C0000AFF860B9607A60FB681B6A7B61FB6885
:102E2C001B6A23F01002FB681A62FB689B693B610A
:102E3C003B6923F470433B617B681B033A69134382
:102E4C003B617B6923F0A0037B61BB681B017A6942
:102E5C0013437B61FB683A699A61FB687A691A6271
:102E6C0000BF1C37BD4680BC704780B485B000AF36
:102E7C00786039607B689B68FB60FB6823F07003AB
:102E8C00FB603A68FB68134343F00703FB607B6805
:102E9C00FA689A6000BF1437BD4680BC704780B496
:102EAC0087B000AFF860B9607A603B60FB689B68E4
:102EBC007B617B6923F47F437B613B681A027B68EF
:102ECC001A43BB6813437A6913437B61FB687A69C5
:102EDC009A6000BF1C37BD4680BC704780B485B07B
:102EEC0000AF786039607B6893F83C30012B01D1DE
:102EFC00022341E07B68012283F83C207B6802229C
:102F0C0083F83D207B681B685B68FB607B681B68F3
:102F1C009B68BB60FB6823F07003FB603B681B681D
:102F2C00FA681343FB607B681B68FA685A607B681D
:102F3C001B68144A934209D07B681B68B3F1804F1D
:102F4C0004D07B681B68104A93420CD1BB6823F0F9
:102F5C008003BB603B685B68BA681343BB607B68EB
:102F6C001B68BA689A607B68012283F83D207B68F5
:102F7C00002283F83C20002318461437BD4680BC41
:102F8C00704700BF002C01400004004080B483B0A7
:102F9C0000AF786000BF0C37BD4680BC704780B472
:102FAC0083B000AF786000BF0C37BD4680BC704763
:102FBC0003460244934200D1704703F8011BF9E722
:102FCC0070B500260C4D0D4C641BA410A64209D103
:102FDC0000F01AF800260A4D0A4C641BA410A642F5
:102FEC0005D170BD55F8043B98470136EEE755F80E
:102FFC00043B98470136F2E7503000085030000887
:10300C005030000854300008F8B500BFF8BC08BCBC
:10301C009E467047F8B500BFF8BC08BC9E4670478A
:10302C00000000000000000001020304060708096C
:10303C0002030405060708090A0B0C0D0E0F1010ED
:04304C00010200007D
:043050003101000842
:043054000D01000862
:10305800010000000200000003000000040000005E
:103068000100000001000000010000000100000054
:103078000100000001000000010000000100000044
:103088000100000001000000010000000100000034
:103098000100000001000000010000000100000024
:1030A8000100000001000000010000000100000014
:1030B800F401000005000000020000000300000009
:0C30C80000127A0010000000010000005F
:04000005080018EDEA
:00000001FF
