:020000040800F2
:1000000000280020E113000869130008711300089C
:10001000791300088113000889130008000000000C
:100020000000000000000000000000009113000824
:100030009D13000800000000A9130008B513000874
:10004000291400082914000829140008291400089C
:10005000291400082914000829140008291400088C
:10006000291400082914000829140008291400087C
:10007000291400082914000829140008291400086C
:10008000291400082914000829140008291400085C
:10009000291400082914000829140008291400084C
:1000A000291400082914000829140008291400083C
:1000B000C1130008291400080000000029140008DA
:1000C00029140008000000000000000029140008A6
:1000D0000000000029140008291400080000000096
:1000E0002914000829140008291400080000000041
:1000F0000000000000000000000000000000000000
:0C01000000000000000000005FF808F1A3
:10010C0010B5054C237833B9044B13B10448AFF345
:10011C0000800123237010BD7C0000200000000033
:10012C00082B000808B5034B1BB103490348AFF378
:10013C00008008BD0000000080000020082B000893
:10014C0080B582B000AF78607B68092B00F28081AB
:10015C0001A252F823F000BF8D010008D501000860
:10016C001D02000865020008AD020008F502000837
:10017C003D03000885030008CD03000815040008A2
:10018C0000220121B44801F04EFC00220221B248A9
:10019C0001F049FC00220421AF4801F044FC00228C
:1001AC000821AD4801F03FFC00221021AA4801F0C3
:1001BC003AFC00222021A84801F035FC0122402104
:1001CC00A54801F030FC43E101220121A24801F0D5
:1001DC002AFC00220221A04801F025FC0022042167
:1001EC009D4801F020FC012208219B4801F01BFCDA
:1001FC0001221021984801F016FC0122202196487A
:10020C0001F011FC01224021934801F00CFC1FE18C
:10021C0000220121904801F006FC002202218E48A8
:10022C0001F001FC012204218B4801F0FCFB0022AF
:10023C000821894801F0F7FB00221021864801F0C3
:10024C00F2FB01222021844801F0EDFB0022402129
:10025C00814801F0E8FBFBE0002201217E4801F01F
:10026C00E2FB002202217C4801F0DDFB002204218C
:10027C00794801F0D8FB00220821774801F0D3FB24
:10028C0001221021744801F0CEFB0122202172487A
:10029C0001F0C9FB002240216F4801F0C4FBD7E0FC
:1002AC00012201216C4801F0BEFB002202216A48A8
:1002BC0001F0B9FB00220421674801F0B4FB0122D4
:1002CC000821654801F0AFFB01221021624801F0C2
:1002DC00AAFB00222021604801F0A5FB002240214E
:1002EC005D4801F0A0FBB3E0002201215A4801F067
:1002FC009AFB01220221584801F095FB00220421AF
:10030C00554801F090FB00220821534801F08BFB6B
:10031C0001221021504801F086FB002220214E487A
:10032C0001F081FB002240214B4801F07CFB8FE067
:10033C0000220121484801F076FB012202214648A7
:10034C0001F071FB00220421434801F06CFB0022F8
:10035C000821414801F067FB002210213E4801F0C2
:10036C0062FB002220213C4801F05DFB0022402171
:10037C00394801F058FB6BE000220121364801F0AE
:10038C0052FB00220221344801F04DFB00220421D3
:10039C00314801F048FB012208212F4801F043FBB2
:1003AC00012210212C4801F03EFB012220212A4879
:1003BC0001F039FB01224021274801F034FB47E0D2
:1003CC0000220121244801F02EFB002202212248A8
:1003DC0001F029FB002204211F4801F024FB00221C
:1003EC0008211D4801F01FFB002210211A4801F0C2
:1003FC001AFB00222021184801F015FB0022402195
:10040C00154801F010FB23E000220121124801F0F5
:10041C000AFB00220221104801F005FB00220421F6
:10042C000D4801F000FB002208210B4801F0FBFAFB
:10043C0001221021084801F0F6FA0022202106487A
:10044C0001F0F1FA00224021034801F0ECFA00BF60
:10045C0000BF0837BD4680BD000C014080B582B09E
:10046C0000AF78607B68032B7ED801A252F823F092
:10047C008D040008C7040008010500083B050008AE
:10048C003B4B1B681846FFF75BFE00228021394866
:10049C0001F0C9FA01224FF48071364801F0C3FA19
:1004AC0001224FF40071334801F0BDFA01224FF4E0
:1004BC008061304801F0B7FA56E02D4B5B68184666
:1004CC00FFF73EFE012280212A4801F0ACFA0022FF
:1004DC004FF48071274801F0A6FA01224FF4007105
:1004EC00244801F0A0FA01224FF48061214801F068
:1004FC009AFA39E01E4B9B681846FFF721FE012241
:10050C0080211C4801F08FFA01224FF480711948A8
:10051C0001F089FA00224FF40071164801F083FAB9
:10052C0001224FF48061134801F07DFA1CE0104B5E
:10053C00DB681846FFF704FE012280210D4801F00C
:10054C0072FA01224FF480710A4801F06CFA012210
:10055C004FF40071074801F066FA00224FF48061F5
:10056C00044801F060FA00BF00BF0837BD4680BDEB
:10057C0000000020000C014080B500AF084B1B6848
:10058C005A1C07490A601846FFF768FF044B1B68A2
:10059C000422934202D1024B00221A6000BF80BD9C
:1005AC009800002080B483B000AF7860094A7B6863
:1005BC0052F82330012B06D1064A7B68002142F801
:1005CC002310012300E0002318460C37BD4680BCE5
:1005DC00704700BF9C00002080B582B000AF0023A4
:1005EC007B607BE0424A7B6852F8232041497B6860
:1005FC0041F82320404A7B6852F823203C497B6811
:10060C0041F823204FF400513C4801F0F5F9034622
:10061C001A46394B1A604FF48041384801F0ECF916
:10062C0003461A46344B5A604FF40041334801F0EC
:10063C00E3F903461A46304B9A602D4A7B6852F810
:10064C0023202D497B6851F823309A4243D1284A04
:10065C007B6852F8232027497B6851F823309A4253
:10066C0039D1244A7B6852F8232025497B6851F8FC
:10067C0023309A4217D01F4A7B6852F82320204916
:10068C007B6841F823201E4A7B6852F82330002BEC
:10069C0021D11C4B4FF4FA721A601B4A7B68012162
:1006AC0042F8231017E0174B1B68013B154A1360E7
:1006BC00144B1B68002B0ED1124B4FF4FA721A60BC
:1006CC000F4A7B6852F82330002B04D10E4A7B680A
:1006DC00012142F823107B6801337B6005227B6883
:1006EC009342FFF67FAF00BF00BF0837BD4680BD09
:1006FC0024000020380000201000002000080140D9
:10070C004C000020600000209C00002080B400AF52
:10071C001A4B1B681A4A82FB03129210DB17D31A6E
:10072C00184A1360154B1968154B83FB01239A105B
:10073C00CB17D21A13469B0013445B00CA1A114BF9
:10074C005A60114B1B680E4A82FB03129210DB1786
:10075C00D31A0C4A93600C4B1968094B83FB012389
:10076C009A10CB17D21A13469B0013445B00CA1A7B
:10077C00044BDA6000BFBD4680BC7047B800002057
:10078C006766666600000020BC00002080B500AFE4
:10079C008021704801F05FF9FFF7B8FF6E4B1B68C2
:1007AC000D2B65D801A252F823F000BFF107000809
:1007BC007D0800087D0800087D0800087D080008F9
:1007CC007D0800087D0800087D0800087D080008E9
:1007DC007D0800087D080008050800084508000889
:1007EC006108000800F0F6F95B4B0B221A605B4BBA
:1007FC001B685B4A136042E000F018FA584B1B6808
:10080C00002B06D1544B0D221A60564B1B68544AD0
:10081C0013600020FFF7C6FE0346012B2AD14E4B76
:10082C0015221A60504B1F221A604D4B0A221A6077
:10083C004E4B01221A601DE000F00EFA484B1B686B
:10084C00002B19D1444B0B221A60444B1B68444AB1
:10085C00136011E000F016FA414B1B68002B0DD110
:10086C003D4B0C221A60424B1B683D4A136005E05D
:10087C0000BF04E000BF02E000BF00E000BF3A4B45
:10088C001B680D2B52D801A252F823F0D108000896
:10089C003909000839090008390900083909000824
:1008AC003909000839090008390900083909000814
:1008BC003909000839090008E50800080109000891
:1008CC001D09000800F09CF9274B0D221A60254BDE
:1008DC001B68264A136030E000F0EAF9234B1B68D2
:1008EC00002B25D1204B0D221A601E4B1B681F4A72
:1008FC0013601DE000F0F2F91C4B1B68002B19D1A2
:10090C00194B0B221A60154B1B68184A136011E027
:10091C0000F0FAF9154B1B68002B0DD1124B0C2271
:10092C001A60134B1B68114A136005E000BF04E00A
:10093C0000BF02E000BF00E000BF094B1B68013B99
:10094C00074A1360094B1B68013B084A136000BF40
:10095C0080BD00BF00080140B000002064000020F2
:10096C00B80000206C000020B4000020BC00002067
:10097C006800002080B500AF5A4B1B68153B032B59
:10098C0000F2A48001A252F823F000BFA9090008CC
:10099C00F5090008410A00088D0A000800F046F924
:1009AC0000F0B2F9504B1B68002B0DD14F4B1B685C
:1009BC004D4A13604E4B1B684E4A1360494B0B2239
:1009CC001A604D4B0D221A600020FFF7EBFD034619
:1009DC00012B7DD1434B16221A60434B0A221A601D
:1009EC00444B01221A6073E000F020F900F076F914
:1009FC003D4B1B68002B0DD13C4B1B683A4A1360D6
:100A0C003E4B1B683B4A1360364B0B221A603A4B29
:100A1C000C221A600020FFF7C5FD0346012B59D1AB
:100A2C00304B17221A60304B0A221A60314B0122CC
:100A3C001A604FE000F026F900F03AF92A4B1B68D7
:100A4C00002B0DD12A4B1B68274A1360274B1B68C0
:100A5C00284A1360234B0D221A60274B0B221A6075
:100A6C000020FFF79FFD0346012B35D11D4B1822AB
:100A7C001A601D4B0A221A601E4B01221A602BE0D1
:100A8C0000F0EAF800F014F9174B1B68002B0DD19D
:100A9C001A4B1B68144A1360144B1B68154A1360DD
:100AAC00104B0C221A60144B0B221A600020FFF71B
:100ABC0079FD0346012B11D10A4B15221A600A4B02
:100ACC000A221A600B4B01221A6007E000BF06E0F5
:100ADC0000BF04E000BF02E000BF00E000BF00BFA9
:100AEC0080BD00BFB0000020B800002064000020D2
:100AFC006C000020BC000020B40000206800002026
:100B0C0080B586B000AF07F1080300221A605A6066
:100B1C009A60DA602C4B9B692B4A43F00803936173
:100B2C00294B9B6903F008037B607B68264B9B6910
:100B3C00254A43F004039361234B9B6903F00403A0
:100B4C003B603B6800220121204800F06CFF012330
:100B5C00BB600123FB6000233B6102237B6107F137
:100B6C0008031946194800F0CBFD4FF46043BB60F5
:100B7C000023FB6001233B6107F10803194614486D
:100B8C0000F0BEFDFE23BB600123FB6000233B6134
:100B9C0002237B6107F1080319460D4800F0B0FDF4
:100BAC0043F6FE73BB600123FB6000233B61022311
:100BBC007B6107F108031946044800F0A1FD00BF52
:100BCC001837BD4680BD00BF00100240000C01402C
:100BDC000008014080B500AF00220221074800F058
:100BEC0022FF00220421054800F01DFF00220821ED
:100BFC00024800F018FF00BF80BD00BF0008014094
:100C0C0080B500AF00221021074800F00CFF002235
:100C1C002021054800F007FF00224021024800F087
:100C2C0002FF00BF80BD00BF0008014080B500AFCF
:100C3C0001220221074800F0F6FE0022042105489B
:100C4C0000F0F1FE00220821024800F0ECFE00BF8B
:100C5C0080BD00BF0008014080B500AF002202211A
:100C6C00074800F0E0FE01220421054800F0DBFEFD
:100C7C0000220821024800F0D6FE00BF80BD00BF54
:100C8C000008014080B500AF00220221074800F0A7
:100C9C00CAFE00220421054800F0C5FE01220821ED
:100CAC00024800F0C0FE00BF80BD00BF000801403C
:100CBC0080B500AF01221021074800F0B4FE0022DD
:100CCC002021054800F0AFFE00224021024800F030
:100CDC00AAFE00BF80BD00BF0008014080B500AF78
:100CEC0000221021074800F09EFE01222021054819
:100CFC0000F099FE00224021024800F094FE00BF53
:100D0C0080BD00BF0008014080B500AF002210215B
:100D1C00074800F088FE00222021054800F083FEE1
:100D2C0001224021024800F07EFE00BF80BD00BFC2
:100D3C000008014080B500AFFFF728FDFFF71AFE51
:100D4C0000BF80BD80B500AF00F06AFB00F02AF850
:100D5C0000F0B2F800F064F800F086FA0D4801F0EB
:100D6C0015FB00F0BFF80A224FF4FA710A4800F0A4
:100D7C0045F94FF47A724FF47A71084800F03EF955
:100D8C007D224FF4FA61064800F038F900F0E4F9DE
:100D9C00FCE700BFC0000020E5050008410D00087D
:100DAC008505000880B590B000AF07F11803282224
:100DBC000021184601F076FE3B1D00221A605A6095
:100DCC009A60DA601A610A23BB610123BB621023AB
:100DDC00FB6201233B6300237B6307F11803184676
:100DEC0000F0A6FE0346002B01D000F075F80F238F
:100DFC007B600023BB600023FB6000233B6100236E
:100E0C007B613B1D0021184601F014F90346002BB1
:100E1C0001D000F061F800BF4037BD4680BD000036
:100E2C0080B586B000AF07F1080300221A605A6043
:100E3C009A60DA603B4600221A605A601D4B4FF0F4
:100E4C0080421A601B4B41F63F725A60194B0022CC
:100E5C009A60184B0922DA60164B00221A61154B66
:100E6C0000229A61134801F041FA0346002B01D08D
:100E7C0000F032F84FF48053BB6007F108031946B9
:100E8C000C4801F0BFFB0346002B01D000F024F806
:100E9C0000233B6000237B603B461946054801F06C
:100EAC0097FD0346002B01D000F016F800BF183751
:100EBC00BD4680BDC000002080B500AFFFF720FE0E
:100ECC0000BF80BD80B582B000AF786000F026F81E
:100EDC0000BF0837BD4680BD80B400AF72B600BFFE
:100EEC0000BFFDE780B582B000AF0023FB7106E0C8
:100EFC00FB79184600F0E8F8FB790133FB71FB79BC
:100F0C00272BF5D9044B00221A7000F0ADF900BF65
:100F1C000837BD4680BD00BF2804002080B582B0D4
:100F2C0000AF00237B605DE033497A6813469B0079
:100F3C0013449B000B441B68002B50D02E497A683D
:100F4C0013469B0013449B000B4404331B68002B7B
:100F5C0032D129497A6813469B0013449B000B44F9
:100F6C000C331B780133D8B223497A6813469B00A3
:100F7C0013449B000B440C3302461A701E497A68CA
:100F8C0013469B0013449B000B4408331B68002B37
:100F9C0025D019497A6813469B0013449B000B44D7
:100FAC000833196814487A6813469B0013449B0055
:100FBC0003440433196012E00F497A6813469B000E
:100FCC0013449B000B4404331B68591E0A487A686F
:100FDC0013469B0013449B000344043319607B6845
:100FEC0001337B607B68272B9ED900F057F900BF3B
:100FFC000837BD4680BD00BF0801002080B487B013
:10100C0000AFF860B9607A6000237B6102E07B6915
:10101C0001337B6129497A6913469B0013449B0079
:10102C000B441B68002B02D07B69272BEFD97B6903
:10103C00282B04D1224B01221A70282339E01F4996
:10104C007A6913469B0013449B000B44FA681A60A0
:10105C00BB681C4AA2FB0323D90818487A691346BB
:10106C009B0013449B000344043319607B68154AAE
:10107C00A2FB0323D90811487A6913469B00134439
:10108C009B000344083319600C497A6913469B0092
:10109C0013449B000B440C3300221A7007497A69E5
:1010AC0013469B0013449B000B4410337A691A605F
:1010BC007B6918461C37BD4680BC70470801002070
:1010CC0028040020CDCCCCCC80B485B000AF7860A7
:1010DC001F497A6813469B0013449B000B441B6802
:1010EC00002B05D11B4B08221A70FF23FB7301E068
:1010FC000023FB7316497A6813469B0013449B002C
:10110C000B4400221A6012497A6813469B00134460
:10111C009B000B44043300221A600D497A68134675
:10112C009B0013449B000B44083300221A600849AF
:10113C007A6813469B0013449B000B440C3300222B
:10114C001A70FB7B18461437BD4680BC704700BF35
:10115C00080100202804002080B582B000AF0023D5
:10116C00FB7139E0FA79214913469B0013449B002B
:10117C000B440C331B78002B2BD0FA791B491346EC
:10118C009B0013449B000B441B689847FA79174942
:10119C0013469B0013449B000B440C331B78013B00
:1011AC00D8B2124913469B0013449B000B440C33DA
:1011BC0002461A70FA790D4913469B0013449B00A2
:1011CC000B4408331B68002B03D1FB791846FFF73F
:1011DC007BFFFB790133FB71FB79272BC2D900F024
:1011EC0007F800BF0837BD4680BD00BF08010020CE
:1011FC0080B400AF184B1A78184B1B789A4216D053
:10120C00154B1B78DB43DAB2154B1A70124B1A785C
:10121C00124B1A70104B1B78002B04D0114B4EF64E
:10122C0060221A6013E00F4B00221A600FE00D4B86
:10123C001B68002B0BD00B4B1B68013B094A13603E
:10124C00084B1B68002B02D1034B00221A7000BF05
:10125C00BD4680BC704700BF280400202A04002033
:10126C00290400202C04002080B500AF094B0A4A49
:10127C001A60084B03225A60064B40F6FF729A60C4
:10128C00044800F001FC0346002B01D0FFF724FEBC
:10129C0000BF80BD300400200030004080B500AF9E
:1012AC00024800F035FC00BF80BD00BF30040020B8
:1012BC0080B485B000AF154B9B69144A43F0010311
:1012CC009361124B9B6903F00103BB60BB680F4B2E
:1012DC00DB690E4A43F08053D3610C4BDB6903F09E
:1012EC0080537B607B680A4B5B68FB60FB6823F078
:1012FC00E063FB60FB6843F08063FB60044AFB68BF
:10130C00536000BF1437BD4680BC704700100240CC
:10131C000000014080B584B000AF78607B681B682A
:10132C00B3F1804F13D10C4BDB690B4A43F0010333
:10133C00D361094BDB6903F00103FB60FB680022FE
:10134C0000211C2000F0A5F91C2000F0BEF900BF04
:10135C001037BD4680BD00BF0010024080B400AF06
:10136C0000BFFDE780B400AF00BFFDE780B400AF65
:10137C0000BFFDE780B400AF00BFFDE780B400AF55
:10138C0000BFFDE780B400AF00BFBD4680BC704716
:10139C0080B400AF00BFBD4680BC704780B400AFC6
:1013AC0000BFBD4680BC704780B500AF00F07EF832
:1013BC0000BF80BD80B500AF024801F033F800BF1C
:1013CC0080BD00BFC000002080B400AF00BFBD4690
:1013DC0080BC7047FFF7F8FF0B480C490C4A002300
:1013EC0002E0D458C4500433C4188C42F9D3094ACF
:1013FC00094C002301E013600432A242FBD301F03C
:10140C0059FBFFF79FFC7047000000207C00002078
:10141C004C2B00087C00002040040020FEE700005C
:10142C0080B500AF084B1B68074A43F010031360EC
:10143C00032000F023F90F2000F008F8FFF738FF25
:10144C000023184680BD00BF0020024080B582B04A
:10145C0000AF7860124B1A68124B1B7819464FF488
:10146C007A73B3FBF1F3B2FBF3F3184600F03BF9DC
:10147C000346002B01D001230EE07B680F2B0AD80A
:10148C00002279684FF0FF3000F003F9064A7B68C0
:10149C001360002300E0012318460837BD4680BDC9
:1014AC0070000020780000207400002080B400AF91
:1014BC00054B1B781A46054B1B681344034A1360F3
:1014CC0000BFBD4680BC7047780000203C04002063
:1014DC0080B400AF024B1B681846BD4680BC7047F9
:1014EC003C04002080B485B000AF78607B6803F0CA
:1014FC000703FB600C4BDB68BB60BA684FF6FF035D
:10150C001340BB60FB681A02BB68134343F0BF6314
:10151C0043F40033BB60044ABB68D36000BF14378C
:10152C00BD4680BC704700BF00ED00E080B400AF4A
:10153C00044BDB681B0A03F007031846BD4680BC4E
:10154C00704700BF00ED00E080B483B000AF0346ED
:10155C00FB7197F90730002B0BDBFB7903F01F02B3
:10156C00064997F907305B09012000FA02F241F8AD
:10157C00232000BF0C37BD4680BC704700E100E063
:10158C0080B483B000AF03463960FB7197F9073024
:10159C00002B0ADB3B68DAB20C4997F907301201D1
:1015AC00D2B20B4483F800230AE03B68DAB2084954
:1015BC00FB7903F00F03043B1201D2B20B441A76F1
:1015CC0000BF0C37BD4680BC704700BF00E100E097
:1015DC0000ED00E080B489B000AFF860B9607A60CB
:1015EC00FB6803F00703FB61FB69C3F10703042BE2
:1015FC0028BF0423BB61FB690433062B02D9FB69AA
:10160C00033B00E000237B614FF0FF32BB6902FA21
:10161C0003F3DA43BB681A407B699A404FF0FF3101
:10162C007B6901FA03F3D9437B680B4013431846DB
:10163C002437BD4680BC704780B582B000AF78605F
:10164C007B68013BB3F1807F01D301230FE00A4A91
:10165C007B68013B53600F214FF0FF30FFF790FF89
:10166C00054B00229A60044B07221A60002318468F
:10167C000837BD4680BD00BF10E000E080B582B0E9
:10168C0000AF78607868FFF72DFF00BF0837BD46C4
:10169C0080BD80B586B000AF0346B9607A60FB733D
:1016AC0000237B61FFF742FF78617A68B96878693B
:1016BC00FFF790FF024697F90F3011461846FFF7D7
:1016CC005FFF00BF1837BD4680BD80B582B000AF4C
:1016DC000346FB7197F907301846FFF735FF00BF3B
:1016EC000837BD4680BD80B582B000AF78607868A1
:1016FC00FFF7A2FF034618460837BD4680BD000021
:10170C0080B48BB000AF7860396000237B6200231B
:10171C003B6261E101227B6A02FA03F3FB613B68E5
:10172C001B68FA691340BB61BA69FB699A4240F0C5
:10173C0050813B685B68974A93425ED0954A9342CE
:10174C0075D8954A934258D0934A93426FD8934A8E
:10175C00934252D0914A934269D8914A93424CD0C9
:10176C008F4A934263D88F4A934246D08D4A934214
:10177C005DD8122B2AD8122B59D801A252F823F07B
:10178C0007180008E1170008F317000835180008BF
:10179C003B1800083B1800083B1800083B180008D1
:1017AC003B1800083B1800083B1800083B180008C1
:1017BC003B1800083B1800083B1800083B180008B1
:1017CC003B180008E9170008FD170008764A9342F9
:1017DC0013D02CE03B68DB683B6229E03B68DB689C
:1017EC0004333B6224E03B68DB6808333B621FE058
:1017FC003B68DB680C333B621AE03B689B68002B50
:10180C0002D104233B6213E03B689B68012B05D19A
:10181C0008233B627B68FA691A6109E008233B6282
:10182C007B68FA695A6103E000233B6200E000BF69
:10183C00BB69FF2B01D87B6801E07B6804337B61BB
:10184C00BB69FF2B02D87B6A9B0002E07B6A083BDA
:10185C009B003B617B691A680F213B6901FA03F31A
:10186C00DB431A40396A3B6901FA03F31A437B697B
:10187C001A603B685B6803F08053002B00F0A98072
:10188C004A4B9B69494A43F001039361474B9B695F
:10189C0003F00103BB60BB68454A7B6A9B080233BB
:1018AC0052F82330FB607B6A03F003039B000F228A
:1018BC0002FA03F3DB43FA681340FB607B683D4A92
:1018CC0093420DD07B683C4A934207D07B683B4ADD
:1018DC00934201D1022304E0032302E0012300E040
:1018EC0000237A6A02F0030292009340FA681343D1
:1018FC00FB602F497B6A9B080233FA6841F823206E
:10190C003B685B6803F48013002B06D02C4B9A6861
:10191C002B49BB6913438B6006E0294B9A68BB6962
:10192C00DB43274913408B603B685B6803F400136F
:10193C00002B06D0224BDA682149BB691343CB60DC
:10194C0006E01F4BDA68BB69DB431D491340CB60D3
:10195C003B685B6803F40033002B06D0184B5A68C5
:10196C001749BB6913434B6006E0154B5A68BB69BA
:10197C00DB43134913404B603B685B6803F48033D3
:10198C00002B1FD00E4B1A680D49BB6913430B601B
:10199C001FE000BF000032100000311000002210C8
:1019AC000000211000001210000011100010024065
:1019BC000000014000080140000C014000100140F3
:1019CC00000401400B4B1A68BB69DB430949134007
:1019DC000B607B6A01337B623B681A687B6A22FA74
:1019EC0003F3002B7FF496AE00BF00BF2C37BD462F
:1019FC0080BC70470004014080B485B000AF7860B3
:101A0C000B467B807B689A687B881340002B02D046
:101A1C000123FB7301E00023FB73FB7B1846143797
:101A2C00BD4680BC704780B483B000AF78600B4675
:101A3C007B8013467B707B78002B03D07A887B6885
:101A4C001A6103E07B881A047B681A6100BF0C37AB
:101A5C00BD4680BC704780B485B000AF78600B4643
:101A6C007B807B68DB68FB607A88FB6813401A0418
:101A7C00FB68D9437B880B401A437B681A6100BF13
:101A8C001437BD4680BC704780B584B000AF786019
:101A9C007B68002B01D1012336E07B681B684CF678
:101AAC00CC421A607B681B6845F255521A607B6801
:101ABC001B687A6852685A607B681B687A689268FF
:101ACC009A60FFF705FDF86011E0FFF701FD024693
:101ADC00FB68D31A41F23C32934208D97B681B68ED
:101AEC00DB6803F00303002B01D003230CE07B68BD
:101AFC001B68DB6803F00303002BE6D17B681B68D3
:101B0C004AF6AA221A60002318461037BD4680BD3B
:101B1C0080B483B000AF78607B681B684AF6AA2259
:101B2C001A60002318460C37BD4680BC7047000075
:101B3C0080B586B000AF78607B68002B01D10123A3
:101B4C0072E27B681B6803F00103002B00F08780B6
:101B5C00924B5B6803F00C03042B0CD08F4B5B682F
:101B6C0003F00C03082B12D18C4B5B6803F480330D
:101B7C00B3F5803F0BD1894B1B6803F40033002B6A
:101B8C006CD07B685B68002B68D101234CE27B68CE
:101B9C005B68B3F5803F06D1804B1B687F4A43F4EA
:101BAC00803313602EE07B685B68002B0CD17B4B81
:101BBC001B687A4A23F480331360784B1B68774A8E
:101BCC0023F4802313601DE07B685B68B3F5A02FC2
:101BDC000CD1724B1B68714A43F4802313606F4B1A
:101BEC001B686E4A43F4803313600BE06B4B1B682D
:101BFC006A4A23F480331360684B1B68674A23F4EA
:101C0C00802313607B685B68002B13D0FFF760FCAC
:101C1C00386108E0FFF75CFC02463B69D31A642B81
:101C2C0001D9032300E25D4B1B6803F40033002B46
:101C3C00F0D014E0FFF74CFC386108E0FFF748FCEB
:101C4C0002463B69D31A642B01D90323ECE1534BB5
:101C5C001B6803F40033002BF0D100E000BF7B685D
:101C6C001B6803F00203002B63D04C4B5B6803F042
:101C7C000C03002B0BD0494B5B6803F00C03082BB7
:101C8C001CD1464B5B6803F48033002B16D1434BBD
:101C9C001B6803F00203002B05D07B681B69012B2A
:101CAC0001D00123C0E13D4B1B6823F0F8027B6897
:101CBC005B69DB00394913430B603AE07B681B69B5
:101CCC00002B20D0364B01221A60FFF701FC386143
:101CDC0008E0FFF7FDFB02463B69D31A022B01D942
:101CEC000323A1E12D4B1B6803F00203002BF0D062
:101CFC002A4B1B6823F0F8027B685B69DB002749E1
:101D0C0013430B6015E0264B00221A60FFF7E0FB33
:101D1C00386108E0FFF7DCFB02463B69D31A022B63
:101D2C0001D9032380E11D4B1B6803F00203002B38
:101D3C00F0D17B681B6803F00803002B3AD07B685A
:101D4C009B69002B19D0174B01221A60FFF7C0FBBF
:101D5C00386108E0FFF7BCFB02463B69D31A022B43
:101D6C0001D9032360E10D4B5B6A03F00203002BE6
:101D7C00F0D0012000F09CFA1CE00A4B00221A6003
:101D8C00FFF7A6FB38610FE0FFF7A2FB02463B69A9
:101D9C00D31A022B08D9032346E100BF00100240DE
:101DAC000000424280044242924B5B6A03F0020301
:101DBC00002BE9D17B681B6803F00403002B00F0B7
:101DCC00A6800023FB758B4BDB6903F08053002B43
:101DDC000DD1884BDB69874A43F08053D361854B27
:101DEC00DB6903F08053BB60BB680123FB75824B3E
:101DFC001B6803F48073002B18D17F4B1B687E4A41
:101E0C0043F480731360FFF763FB386108E0FFF75E
:101E1C005FFB02463B69D31A642B01D9032303E110
:101E2C00754B1B6803F48073002BF0D07B68DB6868
:101E3C00012B06D16F4B1B6A6E4A43F001031362F0
:101E4C002DE07B68DB68002B0CD16A4B1B6A694A5E
:101E5C0023F001031362674B1B6A664A23F00403E9
:101E6C0013621CE07B68DB68052B0CD1614B1B6A91
:101E7C00604A43F0040313625E4B1B6A5D4A43F0F5
:101E8C00010313620BE05B4B1B6A5A4A23F00103FC
:101E9C001362584B1B6A574A23F0040313627B6886
:101EAC00DB68002B15D0FFF713FB38610AE0FFF756
:101EBC000FFB02463B69D31A41F28832934201D997
:101ECC000323B1E04B4B1B6A03F00203002BEED053
:101EDC0014E0FFF7FDFA38610AE0FFF7F9FA024661
:101EEC003B69D31A41F28832934201D903239BE018
:101EFC00404B1B6A03F00203002BEED1FB7D012B40
:101F0C0005D13C4BDB693B4A23F08053D3617B68A2
:101F1C00DB69002B00F08780364B5B6803F00C0309
:101F2C00082B61D07B68DB69022B46D1334B002236
:101F3C001A60FFF7CDFA386108E0FFF7C9FA0246DC
:101F4C003B69D31A022B01D903236DE0294B1B6883
:101F5C0003F00073002BF0D17B681B6AB3F5803F54
:101F6C0008D1244B5B6823F400327B689B682149C1
:101F7C0013434B601F4B5B6823F474127B68196A24
:101F8C007B685B6A0B431B4913434B601B4B012261
:101F9C001A60FFF79DFA386108E0FFF799FA0246DC
:101FAC003B69D31A022B01D903233DE0114B1B686B
:101FBC0003F00073002BF0D035E0104B00221A60B8
:101FCC00FFF786FA386108E0FFF782FA02463B69B0
:101FDC00D31A022B01D9032326E0064B1B6803F00E
:101FEC000073002BF0D11EE07B68DB69012B07D15D
:101FFC00012319E0001002400070004060004242D2
:10200C000B4B5B68FB60FB6803F480327B681B6ADC
:10201C009A4206D1FB6803F470127B685B6A9A42A1
:10202C0001D0012300E0002318461837BD4680BDBF
:10203C000010024080B584B000AF786039607B68D6
:10204C00002B01D10123D0E06A4B1B6803F007037E
:10205C003A689A4210D9674B1B6823F0070265490E
:10206C003B6813430B60634B1B6803F007033A6830
:10207C009A4201D00123B8E07B681B6803F002038D
:10208C00002B20D07B681B6803F00403002B05D0C9
:10209C00594B5B68584A43F4E06353607B681B6898
:1020AC0003F00803002B05D0534B5B68524A43F4F2
:1020BC0060535360504B5B6823F0F0027B689B6865
:1020CC004D4913434B607B681B6803F00103002BE5
:1020DC0040D07B685B68012B07D1474B1B6803F42E
:1020EC000033002B15D101237FE07B685B68022B4A
:1020FC0007D1414B1B6803F00073002B09D101235E
:10210C0073E03D4B1B6803F00203002B01D101234C
:10211C006BE0394B5B6823F003027B685B683649E4
:10212C0013434B60FFF7D4F9F8600AE0FFF7D0F9DE
:10213C000246FB68D31A41F28832934201D9032339
:10214C0053E02D4B5B6803F00C027B685B689B00D3
:10215C009A42EBD1274B1B6803F007033A689A426B
:10216C0010D2244B1B6823F0070222493B6813430F
:10217C000B60204B1B6803F007033A689A4201D0AE
:10218C00012332E07B681B6803F00403002B08D0AA
:10219C00194B5B6823F4E0627B68DB6816491343D8
:1021AC004B607B681B6803F00803002B09D0124BB3
:1021BC005B6823F460527B681B69DB000E49134398
:1021CC004B6000F021F802460B4B5B681B0903F0D7
:1021DC000F030A49CB5C22FA03F3094A1360094B3B
:1021EC001B681846FFF732F9002318461037BD4616
:1021FC0080BD00BF0020024000100240202B0008D0
:10220C00700000207400002080B487B000AF002361
:10221C00FB600023BB6000237B6100237B600023F9
:10222C003B611E4B5B68FB60FB6803F00C03042BEB
:10223C0002D0082B03D027E0194B3B6127E0FB6849
:10224C009B0C03F00F03174AD35C7B60FB6803F411
:10225C008033002B10D0114B5B685B0C03F0010337
:10226C00114AD35CBB607B680D4A03FB02F2BB686E
:10227C00B2FBF3F37B6104E07B680C4A02FB03F3D3
:10228C007B617B693B6102E0054B3B6100BF3B69B5
:10229C0018461C37BD4680BC704700BF001002407A
:1022AC0000127A00302B0008402B000800093D007A
:1022BC0080B485B000AF78600A4B1B680A4AA2FB59
:1022CC0003235B0A7A6802FB03F3FB6000BFFB6825
:1022DC005A1EFA60002BF9D100BF00BF1437BD465F
:1022EC0080BC704770000020D34D621080B582B066
:1022FC0000AF78607B68002B01D1012341E07B6843
:10230C0093F83D30DBB2002B06D17B68002283F8BA
:10231C003C207868FEF7FEFF7B68022283F83D20A4
:10232C007B681A687B6804331946104600F056FA2D
:10233C007B68012283F846207B68012283F83E20CB
:10234C007B68012283F83F207B68012283F84020C0
:10235C007B68012283F841207B68012283F84220AC
:10236C007B68012283F843207B68012283F8442098
:10237C007B68012283F845207B68012283F83D208D
:10238C00002318460837BD4680BD000080B485B0D8
:10239C0000AF78607B6893F83D30DBB2012B01D045
:1023AC00012335E07B68022283F83D207B681B68A3
:1023BC00DA687B681B6842F00102DA607B681B6894
:1023CC00164A934209D07B681B68B3F1804F04D046
:1023DC007B681B68124A934211D17B681B689B680F
:1023EC0003F00703FB60FB68062B10D07B681B68AF
:1023FC001A687B681B6842F001021A6007E07B6870
:10240C001B681A687B681B6842F001021A60002383
:10241C0018461437BD4680BC704700BF002C0140E5
:10242C000004004080B584B000AF78607B681B6806
:10243C00DB68FB607B681B681B69BB60BB6803F0D7
:10244C000203002B20D0FB6803F00203002B1BD0EF
:10245C007B681B686FF002021A617B6801221A7795
:10246C007B681B689B6903F00303002B03D078681F
:10247C0000F098F905E0786800F08BF9786800F0C6
:10248C009AF97B6800221A77BB6803F00403002BCF
:10249C0020D0FB6803F00403002B1BD07B681B6867
:1024AC006FF004021A617B6802221A777B681B6842
:1024BC009B6903F44073002B03D0786800F072F929
:1024CC0005E0786800F065F9786800F074F97B68CD
:1024DC0000221A77BB6803F00803002B20D0FB689E
:1024EC0003F00803002B1BD07B681B686FF00802FD
:1024FC001A617B6804221A777B681B68DB6903F01E
:10250C000303002B03D0786800F04CF905E07868E1
:10251C0000F03FF9786800F04EF97B6800221A77DA
:10252C00BB6803F01003002B20D0FB6803F01003F2
:10253C00002B1BD07B681B686FF010021A617B6844
:10254C0008221A777B681B68DB6903F44073002B45
:10255C0003D0786800F026F905E0786800F019F9E6
:10256C00786800F028F97B6800221A77BB6803F0C2
:10257C000103002B0CD0FB6803F00103002B07D0E8
:10258C007B681B686FF001021A617868FEF79AFC91
:10259C00BB6803F08003002B0CD0FB6803F08003B6
:1025AC00002B07D07B681B686FF080021A6178687B
:1025BC0000F06FFABB6803F04003002B0CD0FB68F3
:1025CC0003F04003002B07D07B681B686FF04002C0
:1025DC001A61786800F0F8F8BB6803F02003002B50
:1025EC000CD0FB6803F02003002B07D07B681B6822
:1025FC006FF020021A61786800F042FA00BF1037C1
:10260C00BD4680BD80B584B000AF786039600023D2
:10261C00FB737B6893F83C30012B01D10223B4E0AF
:10262C007B68012283F83C207B68022283F83D20E2
:10263C007B681B689B68BB60BB6823F07703BB603F
:10264C00BB6823F47F43BB607B681B68BA689A60E5
:10265C003B681B68B3F5005F3ED0B3F5005F00F23A
:10266C008780B3F5805F00F08680B3F5805F7FD8FC
:10267C00702B1AD0702B7BD8602B50D0602B77D856
:10268C00502B3CD0502B73D8402B58D0402B6FD8AC
:10269C00302B64D0302B6BD8202B60D0202B67D8FC
:1026AC00002B5CD0102B5AD062E07B6818683B681A
:1026BC0099683B685A683B68DB6800F06AF97B688C
:1026CC001B689B68BB60BB6843F07703BB607B688F
:1026DC001B68BA689A604FE07B6818683B68996819
:1026EC003B685A683B68DB6800F053F97B681B68F1
:1026FC009A687B681B6842F480429A603CE07B6875
:10270C0018683B6859683B68DB681A4600F0CAF8E1
:10271C007B681B685021184600F021F92CE07B687F
:10272C0018683B6859683B68DB681A4600F0E8F8A3
:10273C007B681B686021184600F011F91CE07B686F
:10274C0018683B6859683B68DB681A4600F0AAF8C1
:10275C007B681B684021184600F001F90CE07B688F
:10276C001A683B681B681946104600F0F8F803E03D
:10277C000123FB7300E000BF7B68012283F83D203E
:10278C007B68002283F83C20FB7B18461037BD4643
:10279C0080BD80B483B000AF786000BF0C37BD46FD
:1027AC0080BC704780B483B000AF786000BF0C373A
:1027BC00BD4680BC704780B483B000AF786000BF6A
:1027CC000C37BD4680BC704780B483B000AF7860D6
:1027DC0000BF0C37BD4680BC7047000080B485B08C
:1027EC0000AF786039607B681B68FB607B682B4AA4
:1027FC00934207D07B68B3F1804F03D07B68284AA3
:10280C00934208D1FB6823F07003FB603B685B6864
:10281C00FA681343FB607B68204A934207D07B68BD
:10282C00B3F1804F03D07B681D4A934208D1FB68FB
:10283C0023F44073FB603B68DB68FA681343FB606E
:10284C00FB6823F080023B685B691343FB607B6889
:10285C00FA681A603B689A687B68DA623B681A68A7
:10286C007B689A627B680D4A934203D13B681A6974
:10287C007B681A637B6801225A617B681B6903F0D1
:10288C000103002B05D07B681B6923F001027B68D8
:10289C001A6100BF1437BD4680BC7047002C014044
:1028AC000004004080B487B000AFF860B9607A6073
:1028BC00FB681B6A7B61FB681B6A23F00102FB68E7
:1028CC001A62FB689B693B613B6923F0F0033B6137
:1028DC007B681B013A6913433B617B6923F00A0354
:1028EC007B617A69BB6813437B61FB683A699A61C7
:1028FC00FB687A691A6200BF1C37BD4680BC704702
:10290C0080B487B000AFF860B9607A60FB681B6A6E
:10291C007B61FB681B6A23F01002FB681A62FB6880
:10292C009B693B613B6923F470433B617B681B03F0
:10293C003A6913433B617B6923F0A0037B61BB685D
:10294C001B017A6913437B61FB683A699A61FB68E6
:10295C007A691A6200BF1C37BD4680BC704780B4D0
:10296C0085B000AF786039607B689B68FB60FB6862
:10297C0023F07003FB603A68FB68134343F00703D2
:10298C00FB607B68FA689A6000BF1437BD4680BC58
:10299C00704780B487B000AFF860B9607A603B6074
:1029AC00FB689B687B617B6923F47F437B613B689D
:1029BC001A027B681A43BB6813437A6913437B6121
:1029CC00FB687A699A6000BF1C37BD4680BC7047B3
:1029DC0080B485B000AF786039607B6893F83C3088
:1029EC00012B01D1022341E07B68012283F83C20BA
:1029FC007B68022283F83D207B681B685B68FB6068
:102A0C007B681B689B68BB60FB6823F07003FB60F2
:102A1C003B681B68FA681343FB607B681B68FA68A9
:102A2C005A607B681B68144A934209D07B681B6808
:102A3C00B3F1804F04D07B681B68104A93420CD1D1
:102A4C00BB6823F08003BB603B685B68BA681343C8
:102A5C00BB607B681B68BA689A607B68012283F84C
:102A6C003D207B68002283F83C2000231846143755
:102A7C00BD4680BC704700BF002C014000040040E4
:102A8C0080B483B000AF786000BF0C37BD4680BC0B
:102A9C00704780B483B000AF786000BF0C37BD4680
:102AAC0080BC704703460244934200D1704703F840
:102ABC00011BF9E770B500260C4D0D4C641BA410DE
:102ACC00A64209D100F01AF800260A4D0A4C641BE4
:102ADC00A410A64205D170BD55F8043B98470136A9
:102AEC00EEE755F8043B98470136F2E7442B000813
:102AFC00442B0008442B0008482B0008F8B500BFF5
:102B0C00F8BC08BC9E467047F8B500BFF8BC08BCC2
:042B1C009E4670471A
:102B2000000000000000000001020304060708097D
:102B300002030405060708090A0B0C0D0E0F1010FE
:042B4000010200008E
:042B44003101000853
:042B48000D01000873
:102B4C00010000000200000003000000040000006F
:102B5C000100000001000000010000000100000065
:102B6C000100000001000000010000000100000055
:102B7C000100000001000000010000000100000045
:102B8C000100000001000000010000000100000035
:102B9C000100000001000000010000000100000025
:102BAC00F40100000500000002000000030000001A
:0C2BBC0000127A00100000000100000070
:04000005080013E1FB
:00000001FF
